{
  "_format": "hh3-artifact-1",
  "contractName": "Boomerang",
  "sourceName": "contracts/Boomerang.sol",
  "abi": [
    {
      "inputs": [
        {
          "internalType": "address",
          "name": "_stakeTokenAddress",
          "type": "address"
        }
      ],
      "stateMutability": "nonpayable",
      "type": "constructor"
    },
    {
      "anonymous": false,
      "inputs": [
        {
          "indexed": true,
          "internalType": "address",
          "name": "contributor",
          "type": "address"
        },
        {
          "indexed": false,
          "internalType": "uint256",
          "name": "amount",
          "type": "uint256"
        }
      ],
      "name": "Payout",
      "type": "event"
    },
    {
      "anonymous": false,
      "inputs": [
        {
          "indexed": true,
          "internalType": "address",
          "name": "rater",
          "type": "address"
        },
        {
          "indexed": true,
          "internalType": "bytes32",
          "name": "resourceHash",
          "type": "bytes32"
        },
        {
          "indexed": true,
          "internalType": "address",
          "name": "contributor",
          "type": "address"
        }
      ],
      "name": "RateResource",
      "type": "event"
    },
    {
      "anonymous": false,
      "inputs": [
        {
          "indexed": true,
          "internalType": "address",
          "name": "user",
          "type": "address"
        },
        {
          "indexed": false,
          "internalType": "uint256",
          "name": "amount",
          "type": "uint256"
        }
      ],
      "name": "Refund",
      "type": "event"
    },
    {
      "anonymous": false,
      "inputs": [
        {
          "indexed": true,
          "internalType": "address",
          "name": "contributor",
          "type": "address"
        },
        {
          "indexed": true,
          "internalType": "bytes32",
          "name": "resourceHash",
          "type": "bytes32"
        }
      ],
      "name": "ResourceAdded",
      "type": "event"
    },
    {
      "anonymous": false,
      "inputs": [
        {
          "indexed": true,
          "internalType": "address",
          "name": "user",
          "type": "address"
        },
        {
          "indexed": false,
          "internalType": "uint256",
          "name": "amount",
          "type": "uint256"
        }
      ],
      "name": "Stake",
      "type": "event"
    },
    {
      "anonymous": false,
      "inputs": [
        {
          "indexed": true,
          "internalType": "address",
          "name": "owner",
          "type": "address"
        },
        {
          "indexed": false,
          "internalType": "uint256",
          "name": "amount",
          "type": "uint256"
        }
      ],
      "name": "YieldAccrued",
      "type": "event"
    },
    {
      "inputs": [],
      "name": "STAKE_AMOUNT",
      "outputs": [
        {
          "internalType": "uint256",
          "name": "",
          "type": "uint256"
        }
      ],
      "stateMutability": "view",
      "type": "function"
    },
    {
      "inputs": [
        {
          "internalType": "bytes32",
          "name": "resourceHash",
          "type": "bytes32"
        }
      ],
      "name": "addResource",
      "outputs": [],
      "stateMutability": "nonpayable",
      "type": "function"
    },
    {
      "inputs": [
        {
          "internalType": "address",
          "name": "",
          "type": "address"
        }
      ],
      "name": "contributorVotes",
      "outputs": [
        {
          "internalType": "uint256",
          "name": "",
          "type": "uint256"
        }
      ],
      "stateMutability": "view",
      "type": "function"
    },
    {
      "inputs": [
        {
          "internalType": "address",
          "name": "",
          "type": "address"
        },
        {
          "internalType": "bytes32",
          "name": "",
          "type": "bytes32"
        }
      ],
      "name": "hasRated",
      "outputs": [
        {
          "internalType": "bool",
          "name": "",
          "type": "bool"
        }
      ],
      "stateMutability": "view",
      "type": "function"
    },
    {
      "inputs": [
        {
          "internalType": "address",
          "name": "",
          "type": "address"
        }
      ],
      "name": "hasStaked",
      "outputs": [
        {
          "internalType": "bool",
          "name": "",
          "type": "bool"
        }
      ],
      "stateMutability": "view",
      "type": "function"
    },
    {
      "inputs": [
        {
          "internalType": "address",
          "name": "",
          "type": "address"
        }
      ],
      "name": "lastClaimedYieldPerVote",
      "outputs": [
        {
          "internalType": "uint256",
          "name": "",
          "type": "uint256"
        }
      ],
      "stateMutability": "view",
      "type": "function"
    },
    {
      "inputs": [],
      "name": "owner",
      "outputs": [
        {
          "internalType": "address",
          "name": "",
          "type": "address"
        }
      ],
      "stateMutability": "view",
      "type": "function"
    },
    {
      "inputs": [],
      "name": "payout",
      "outputs": [],
      "stateMutability": "nonpayable",
      "type": "function"
    },
    {
      "inputs": [
        {
          "internalType": "bytes32",
          "name": "resourceHash",
          "type": "bytes32"
        }
      ],
      "name": "rateResource",
      "outputs": [],
      "stateMutability": "nonpayable",
      "type": "function"
    },
    {
      "inputs": [],
      "name": "refund",
      "outputs": [],
      "stateMutability": "nonpayable",
      "type": "function"
    },
    {
      "inputs": [
        {
          "internalType": "bytes32",
          "name": "",
          "type": "bytes32"
        }
      ],
      "name": "resourceToContributor",
      "outputs": [
        {
          "internalType": "address",
          "name": "",
          "type": "address"
        }
      ],
      "stateMutability": "view",
      "type": "function"
    },
    {
      "inputs": [
        {
          "internalType": "bytes32",
          "name": "",
          "type": "bytes32"
        }
      ],
      "name": "resourceVotes",
      "outputs": [
        {
          "internalType": "uint256",
          "name": "",
          "type": "uint256"
        }
      ],
      "stateMutability": "view",
      "type": "function"
    },
    {
      "inputs": [
        {
          "internalType": "uint256",
          "name": "yieldAmount",
          "type": "uint256"
        }
      ],
      "name": "simulateYield",
      "outputs": [],
      "stateMutability": "nonpayable",
      "type": "function"
    },
    {
      "inputs": [],
      "name": "stake",
      "outputs": [],
      "stateMutability": "nonpayable",
      "type": "function"
    },
    {
      "inputs": [],
      "name": "stakeToken",
      "outputs": [
        {
          "internalType": "contract IERC20",
          "name": "",
          "type": "address"
        }
      ],
      "stateMutability": "view",
      "type": "function"
    },
    {
      "inputs": [],
      "name": "totalPrincipal",
      "outputs": [
        {
          "internalType": "uint256",
          "name": "",
          "type": "uint256"
        }
      ],
      "stateMutability": "view",
      "type": "function"
    },
    {
      "inputs": [],
      "name": "totalVotes",
      "outputs": [
        {
          "internalType": "uint256",
          "name": "",
          "type": "uint256"
        }
      ],
      "stateMutability": "view",
      "type": "function"
    },
    {
      "inputs": [],
      "name": "totalYield",
      "outputs": [
        {
          "internalType": "uint256",
          "name": "",
          "type": "uint256"
        }
      ],
      "stateMutability": "view",
      "type": "function"
    },
    {
      "inputs": [],
      "name": "yieldPerVote",
      "outputs": [
        {
          "internalType": "uint256",
          "name": "",
          "type": "uint256"
        }
      ],
      "stateMutability": "view",
      "type": "function"
    }
  ],
  "bytecode": "0x60a060405234801561000f575f5ffd5b5060405161203a38038061203a83398181016040528101906100319190610108565b335f5f6101000a81548173ffffffffffffffffffffffffffffffffffffffff021916908373ffffffffffffffffffffffffffffffffffffffff1602179055508073ffffffffffffffffffffffffffffffffffffffff1660808173ffffffffffffffffffffffffffffffffffffffff168152505050610133565b5f5ffd5b5f73ffffffffffffffffffffffffffffffffffffffff82169050919050565b5f6100d7826100ae565b9050919050565b6100e7816100cd565b81146100f1575f5ffd5b50565b5f81519050610102816100de565b92915050565b5f6020828403121561011d5761011c6100aa565b5b5f61012a848285016100f4565b91505092915050565b608051611ed36101675f395f81816104e30152818161061b01528181610737015281816109e201526111d80152611ed35ff3fe608060405234801561000f575f5ffd5b506004361061011f575f3560e01c806363bd1d4a116100ab578063be7fe2f51161006f578063be7fe2f5146102cf578063c93c8f34146102ed578063e7ca856d1461031d578063f70adf0614610339578063faf5625f146103695761011f565b806363bd1d4a1461023f578063699f225e1461024957806379c12330146102795780638da5cb5b1461029557806390ef6ec0146102b35761011f565b80632ef90d30116100f25780632ef90d30146101bf5780633a4b66f1146101ef5780634b1533b2146101f957806351ed6a3014610217578063590e1ae3146102355761011f565b80630141820514610123578063095da09d146101415780630d15fd77146101715780632e71df2a1461018f575b5f5ffd5b61012b610387565b6040516101389190611352565b60405180910390f35b61015b600480360381019061015691906113c9565b61038d565b6040516101689190611352565b60405180910390f35b6101796103a2565b6040516101869190611352565b60405180910390f35b6101a960048036038101906101a49190611427565b6103a8565b6040516101b6919061147f565b60405180910390f35b6101d960048036038101906101d491906113c9565b6103d2565b6040516101e69190611352565b60405180910390f35b6101f76103e7565b005b610201610613565b60405161020e9190611352565b60405180910390f35b61021f610619565b60405161022c91906114f3565b60405180910390f35b61023d61063d565b005b610247610865565b005b610263600480360381019061025e919061150c565b610b0e565b6040516102709190611352565b60405180910390f35b610293600480360381019061028e919061150c565b610b23565b005b61029d610ea7565b6040516102aa9190611546565b60405180910390f35b6102cd60048036038101906102c8919061150c565b610ecb565b005b6102d7611088565b6040516102e49190611352565b60405180910390f35b610307600480360381019061030291906113c9565b61108e565b604051610314919061147f565b60405180910390f35b61033760048036038101906103329190611589565b6110ab565b005b610353600480360381019061034e919061150c565b611303565b6040516103609190611546565b60405180910390f35b610371611333565b60405161037e9190611352565b60405180910390f35b60035481565b600a602052805f5260405f205f915090505481565b60045481565b6009602052815f5260405f20602052805f5260405f205f915091509054906101000a900460ff1681565b6008602052805f5260405f205f915090505481565b60025f3373ffffffffffffffffffffffffffffffffffffffff1673ffffffffffffffffffffffffffffffffffffffff1681526020019081526020015f205f9054906101000a900460ff1615610471576040517f08c379a00000000000000000000000000000000000000000000000000000000081526004016104689061160e565b60405180910390fd5b600160025f3373ffffffffffffffffffffffffffffffffffffffff1673ffffffffffffffffffffffffffffffffffffffff1681526020019081526020015f205f6101000a81548160ff021916908315150217905550620186a060015f8282546104da9190611659565b925050819055507f000000000000000000000000000000000000000000000000000000000000000073ffffffffffffffffffffffffffffffffffffffff166323b872dd3330620186a06040518463ffffffff1660e01b81526004016105419392919061168c565b6020604051808303815f875af115801561055d573d5f5f3e3d5ffd5b505050506040513d601f19601f8201168201806040525081019061058191906116eb565b6105c0576040517f08c379a00000000000000000000000000000000000000000000000000000000081526004016105b790611760565b60405180910390fd5b3373ffffffffffffffffffffffffffffffffffffffff167febedb8b3c678666e7f36970bc8f57abf6d8fa2e828c0da91ea5b75bf68ed101a620186a06040516106099190611352565b60405180910390a2565b60015481565b7f000000000000000000000000000000000000000000000000000000000000000081565b60025f3373ffffffffffffffffffffffffffffffffffffffff1673ffffffffffffffffffffffffffffffffffffffff1681526020019081526020015f205f9054906101000a900460ff166106c6576040517f08c379a00000000000000000000000000000000000000000000000000000000081526004016106bd906117c8565b60405180910390fd5b5f60025f3373ffffffffffffffffffffffffffffffffffffffff1673ffffffffffffffffffffffffffffffffffffffff1681526020019081526020015f205f6101000a81548160ff021916908315150217905550620186a060015f82825461072e91906117e6565b925050819055507f000000000000000000000000000000000000000000000000000000000000000073ffffffffffffffffffffffffffffffffffffffff1663a9059cbb33620186a06040518363ffffffff1660e01b8152600401610793929190611819565b6020604051808303815f875af11580156107af573d5f5f3e3d5ffd5b505050506040513d601f19601f820116820180604052508101906107d391906116eb565b610812576040517f08c379a000000000000000000000000000000000000000000000000000000000815260040161080990611760565b60405180910390fd5b3373ffffffffffffffffffffffffffffffffffffffff167fbb28353e4598c3b9199101a66e0989549b659a59a54d2c27fbb183f1932c8e6d620186a060405161085b9190611352565b60405180910390a2565b5f60085f3373ffffffffffffffffffffffffffffffffffffffff1673ffffffffffffffffffffffffffffffffffffffff1681526020019081526020015f205490505f81116108e8576040517f08c379a00000000000000000000000000000000000000000000000000000000081526004016108df9061188a565b60405180910390fd5b5f60055490505f600a5f3373ffffffffffffffffffffffffffffffffffffffff1673ffffffffffffffffffffffffffffffffffffffff1681526020019081526020015f205490505f670de0b6b3a7640000828461094591906117e6565b8561095091906118a8565b61095a9190611916565b90505f811161099e576040517f08c379a000000000000000000000000000000000000000000000000000000000815260040161099590611990565b60405180910390fd5b82600a5f3373ffffffffffffffffffffffffffffffffffffffff1673ffffffffffffffffffffffffffffffffffffffff1681526020019081526020015f20819055507f000000000000000000000000000000000000000000000000000000000000000073ffffffffffffffffffffffffffffffffffffffff1663a9059cbb33836040518363ffffffff1660e01b8152600401610a3b929190611819565b6020604051808303815f875af1158015610a57573d5f5f3e3d5ffd5b505050506040513d601f19601f82011682018060405250810190610a7b91906116eb565b610aba576040517f08c379a0000000000000000000000000000000000000000000000000000000008152600401610ab1906119f8565b60405180910390fd5b3373ffffffffffffffffffffffffffffffffffffffff167f5afeca38b2064c23a692c4cf353015d80ab3ecc417b4f893f372690c11fbd9a682604051610b009190611352565b60405180910390a250505050565b6007602052805f5260405f205f915090505481565b60025f3373ffffffffffffffffffffffffffffffffffffffff1673ffffffffffffffffffffffffffffffffffffffff1681526020019081526020015f205f9054906101000a900460ff16610bac576040517f08c379a0000000000000000000000000000000000000000000000000000000008152600401610ba390611a60565b60405180910390fd5b5f60065f8381526020019081526020015f205f9054906101000a900473ffffffffffffffffffffffffffffffffffffffff1690505f73ffffffffffffffffffffffffffffffffffffffff168173ffffffffffffffffffffffffffffffffffffffff1603610c4e576040517f08c379a0000000000000000000000000000000000000000000000000000000008152600401610c4590611ac8565b60405180910390fd5b3373ffffffffffffffffffffffffffffffffffffffff168173ffffffffffffffffffffffffffffffffffffffff1603610cbc576040517f08c379a0000000000000000000000000000000000000000000000000000000008152600401610cb390611b56565b60405180910390fd5b60095f3373ffffffffffffffffffffffffffffffffffffffff1673ffffffffffffffffffffffffffffffffffffffff1681526020019081526020015f205f8381526020019081526020015f205f9054906101000a900460ff1615610d55576040517f08c379a0000000000000000000000000000000000000000000000000000000008152600401610d4c90611be4565b60405180910390fd5b600160095f3373ffffffffffffffffffffffffffffffffffffffff1673ffffffffffffffffffffffffffffffffffffffff1681526020019081526020015f205f8481526020019081526020015f205f6101000a81548160ff02191690831515021790555060075f8381526020019081526020015f205f815480929190610dda90611c02565b919050555060085f8273ffffffffffffffffffffffffffffffffffffffff1673ffffffffffffffffffffffffffffffffffffffff1681526020019081526020015f205f815480929190610e2c90611c02565b919050555060045f815480929190610e4390611c02565b91905055508073ffffffffffffffffffffffffffffffffffffffff16823373ffffffffffffffffffffffffffffffffffffffff167f72a3cc8cf937a051e340fc6fd2f94524ab59ba06937626d7fe13a39f2c120ee860405160405180910390a45050565b5f5f9054906101000a900473ffffffffffffffffffffffffffffffffffffffff1681565b60025f3373ffffffffffffffffffffffffffffffffffffffff1673ffffffffffffffffffffffffffffffffffffffff1681526020019081526020015f205f9054906101000a900460ff16610f54576040517f08c379a0000000000000000000000000000000000000000000000000000000008152600401610f4b90611cb9565b60405180910390fd5b5f73ffffffffffffffffffffffffffffffffffffffff1660065f8381526020019081526020015f205f9054906101000a900473ffffffffffffffffffffffffffffffffffffffff1673ffffffffffffffffffffffffffffffffffffffff1614610ff2576040517f08c379a0000000000000000000000000000000000000000000000000000000008152600401610fe990611d47565b60405180910390fd5b3360065f8381526020019081526020015f205f6101000a81548173ffffffffffffffffffffffffffffffffffffffff021916908373ffffffffffffffffffffffffffffffffffffffff160217905550803373ffffffffffffffffffffffffffffffffffffffff167fe6b5957a9e181d651f1ac05357cc4153c85f952095f5a4da19ab94958b55a5e960405160405180910390a350565b60055481565b6002602052805f5260405f205f915054906101000a900460ff1681565b5f5f9054906101000a900473ffffffffffffffffffffffffffffffffffffffff1673ffffffffffffffffffffffffffffffffffffffff163373ffffffffffffffffffffffffffffffffffffffff1614611139576040517f08c379a000000000000000000000000000000000000000000000000000000000815260040161113090611daf565b60405180910390fd5b5f811161117b576040517f08c379a000000000000000000000000000000000000000000000000000000000815260040161117290611e17565b60405180910390fd5b8060035f82825461118c9190611659565b925050819055505f60045411156111d657600454670de0b6b3a7640000826111b491906118a8565b6111be9190611916565b60055f8282546111ce9190611659565b925050819055505b7f000000000000000000000000000000000000000000000000000000000000000073ffffffffffffffffffffffffffffffffffffffff166323b872dd3330846040518463ffffffff1660e01b81526004016112339392919061168c565b6020604051808303815f875af115801561124f573d5f5f3e3d5ffd5b505050506040513d601f19601f8201168201806040525081019061127391906116eb565b6112b2576040517f08c379a00000000000000000000000000000000000000000000000000000000081526004016112a990611e7f565b60405180910390fd5b3373ffffffffffffffffffffffffffffffffffffffff167f8258a59886e03bdb78e5ddb9566b8ad4957a1747e8d15fd0b4a24274f35cf317826040516112f89190611352565b60405180910390a250565b6006602052805f5260405f205f915054906101000a900473ffffffffffffffffffffffffffffffffffffffff1681565b620186a081565b5f819050919050565b61134c8161133a565b82525050565b5f6020820190506113655f830184611343565b92915050565b5f5ffd5b5f73ffffffffffffffffffffffffffffffffffffffff82169050919050565b5f6113988261136f565b9050919050565b6113a88161138e565b81146113b2575f5ffd5b50565b5f813590506113c38161139f565b92915050565b5f602082840312156113de576113dd61136b565b5b5f6113eb848285016113b5565b91505092915050565b5f819050919050565b611406816113f4565b8114611410575f5ffd5b50565b5f81359050611421816113fd565b92915050565b5f5f6040838503121561143d5761143c61136b565b5b5f61144a858286016113b5565b925050602061145b85828601611413565b9150509250929050565b5f8115159050919050565b61147981611465565b82525050565b5f6020820190506114925f830184611470565b92915050565b5f819050919050565b5f6114bb6114b66114b18461136f565b611498565b61136f565b9050919050565b5f6114cc826114a1565b9050919050565b5f6114dd826114c2565b9050919050565b6114ed816114d3565b82525050565b5f6020820190506115065f8301846114e4565b92915050565b5f602082840312156115215761152061136b565b5b5f61152e84828501611413565b91505092915050565b6115408161138e565b82525050565b5f6020820190506115595f830184611537565b92915050565b6115688161133a565b8114611572575f5ffd5b50565b5f813590506115838161155f565b92915050565b5f6020828403121561159e5761159d61136b565b5b5f6115ab84828501611575565b91505092915050565b5f82825260208201905092915050565b7f4572726f723a20416c7265616479207374616b656400000000000000000000005f82015250565b5f6115f86015836115b4565b9150611603826115c4565b602082019050919050565b5f6020820190508181035f830152611625816115ec565b9050919050565b7f4e487b71000000000000000000000000000000000000000000000000000000005f52601160045260245ffd5b5f6116638261133a565b915061166e8361133a565b92508282019050808211156116865761168561162c565b5b92915050565b5f60608201905061169f5f830186611537565b6116ac6020830185611537565b6116b96040830184611343565b949350505050565b6116ca81611465565b81146116d4575f5ffd5b50565b5f815190506116e5816116c1565b92915050565b5f60208284031215611700576116ff61136b565b5b5f61170d848285016116d7565b91505092915050565b7f4572726f723a20546f6b656e207472616e73666572206661696c6564000000005f82015250565b5f61174a601c836115b4565b915061175582611716565b602082019050919050565b5f6020820190508181035f8301526117778161173e565b9050919050565b7f4572726f723a204e6f74207374616b65640000000000000000000000000000005f82015250565b5f6117b26011836115b4565b91506117bd8261177e565b602082019050919050565b5f6020820190508181035f8301526117df816117a6565b9050919050565b5f6117f08261133a565b91506117fb8361133a565b92508282039050818111156118135761181261162c565b5b92915050565b5f60408201905061182c5f830185611537565b6118396020830184611343565b9392505050565b7f4572726f723a204e6f20766f74657320726563656976656400000000000000005f82015250565b5f6118746018836115b4565b915061187f82611840565b602082019050919050565b5f6020820190508181035f8301526118a181611868565b9050919050565b5f6118b28261133a565b91506118bd8361133a565b92508282026118cb8161133a565b915082820484148315176118e2576118e161162c565b5b5092915050565b7f4e487b71000000000000000000000000000000000000000000000000000000005f52601260045260245ffd5b5f6119208261133a565b915061192b8361133a565b92508261193b5761193a6118e9565b5b828204905092915050565b7f4572726f723a204e6f206e6577207265776172647320746f20636c61696d00005f82015250565b5f61197a601e836115b4565b915061198582611946565b602082019050919050565b5f6020820190508181035f8301526119a78161196e565b9050919050565b7f4572726f723a205061796f7574207472616e73666572206661696c65640000005f82015250565b5f6119e2601d836115b4565b91506119ed826119ae565b602082019050919050565b5f6020820190508181035f830152611a0f816119d6565b9050919050565b7f4572726f723a204d757374207374616b6520746f2072617465000000000000005f82015250565b5f611a4a6019836115b4565b9150611a5582611a16565b602082019050919050565b5f6020820190508181035f830152611a7781611a3e565b9050919050565b7f4572726f723a205265736f757263652068617368206e6f7420666f756e6400005f82015250565b5f611ab2601e836115b4565b9150611abd82611a7e565b602082019050919050565b5f6020820190508181035f830152611adf81611aa6565b9050919050565b7f4572726f723a2043616e6e6f74207261746520796f7572206f776e207265736f5f8201527f7572636500000000000000000000000000000000000000000000000000000000602082015250565b5f611b406024836115b4565b9150611b4b82611ae6565b604082019050919050565b5f6020820190508181035f830152611b6d81611b34565b9050919050565b7f4572726f723a20416c72656164792072617465642074686973207265736f75725f8201527f6365000000000000000000000000000000000000000000000000000000000000602082015250565b5f611bce6022836115b4565b9150611bd982611b74565b604082019050919050565b5f6020820190508181035f830152611bfb81611bc2565b9050919050565b5f611c0c8261133a565b91507fffffffffffffffffffffffffffffffffffffffffffffffffffffffffffffffff8203611c3e57611c3d61162c565b5b600182019050919050565b7f4572726f723a204d757374207374616b6520746f206164642061207265736f755f8201527f7263650000000000000000000000000000000000000000000000000000000000602082015250565b5f611ca36023836115b4565b9150611cae82611c49565b604082019050919050565b5f6020820190508181035f830152611cd081611c97565b9050919050565b7f4572726f723a205265736f75726365206861736820616c7265616479207265675f8201527f6973746572656400000000000000000000000000000000000000000000000000602082015250565b5f611d316027836115b4565b9150611d3c82611cd7565b604082019050919050565b5f6020820190508181035f830152611d5e81611d25565b9050919050565b7f4572726f723a204e6f74206f776e6572000000000000000000000000000000005f82015250565b5f611d996010836115b4565b9150611da482611d65565b602082019050919050565b5f6020820190508181035f830152611dc681611d8d565b9050919050565b7f4572726f723a205969656c64206d75737420626520706f7369746976650000005f82015250565b5f611e01601d836115b4565b9150611e0c82611dcd565b602082019050919050565b5f6020820190508181035f830152611e2e81611df5565b9050919050565b7f4572726f723a205969656c64207472616e73666572206661696c6564000000005f82015250565b5f611e69601c836115b4565b9150611e7482611e35565b602082019050919050565b5f6020820190508181035f830152611e9681611e5d565b905091905056fea26469706673582212207c0f8d874eebbdc631d37d19ee30c901b37e5dc2f070f3a8bb48cd6d6edc037464736f6c634300081c0033",
  "linkReferences": {},
  "deployedLinkReferences": {},
  "immutableReferences": {
    "38": [
      {
        "length": 32,
        "start": 1251
      },
      {
        "length": 32,
        "start": 1563
      },
      {
        "length": 32,
        "start": 1847
      },
      {
        "length": 32,
        "start": 2530
      },
      {
        "length": 32,
        "start": 4568
      }
    ]
  },
  "inputSourceName": "project/contracts/Boomerang.sol",
  "buildInfoId": "solc-0_8_28-7c25f9d36c1d5ea0ce38b6946ff06c4b9eb5b0f9"
}